{
  "contractName": "Escrow",
  "abi": [
    {
      "inputs": [],
      "payable": false,
      "stateMutability": "nonpayable",
      "type": "constructor"
    },
    {
      "constant": true,
      "inputs": [
        {
          "internalType": "address",
          "name": "",
          "type": "address"
        }
      ],
      "name": "deposits",
      "outputs": [
        {
          "internalType": "uint256",
          "name": "",
          "type": "uint256"
        }
      ],
      "payable": false,
      "stateMutability": "view",
      "type": "function"
    },
    {
      "constant": false,
      "inputs": [
        {
          "internalType": "address",
          "name": "charity",
          "type": "address"
        }
      ],
      "name": "deposit",
      "outputs": [],
      "payable": true,
      "stateMutability": "payable",
      "type": "function"
    },
    {
      "constant": false,
      "inputs": [
        {
          "internalType": "uint256",
          "name": "seismicity",
          "type": "uint256"
        },
        {
          "internalType": "address",
          "name": "oracle",
          "type": "address"
        }
      ],
      "name": "determinePayout",
      "outputs": [],
      "payable": false,
      "stateMutability": "nonpayable",
      "type": "function"
    },
    {
      "constant": false,
      "inputs": [
        {
          "internalType": "address payable",
          "name": "charity",
          "type": "address"
        }
      ],
      "name": "withdraw",
      "outputs": [],
      "payable": true,
      "stateMutability": "payable",
      "type": "function"
    },
    {
      "constant": true,
      "inputs": [
        {
          "internalType": "address",
          "name": "charity",
          "type": "address"
        }
      ],
      "name": "getBalance",
      "outputs": [
        {
          "internalType": "uint256",
          "name": "",
          "type": "uint256"
        }
      ],
      "payable": false,
      "stateMutability": "view",
      "type": "function"
    }
  ],
  "bytecode": "0x608060405260008060006101000a81548160ff02191690831515021790555034801561002a57600080fd5b5033600060016101000a81548173ffffffffffffffffffffffffffffffffffffffff021916908373ffffffffffffffffffffffffffffffffffffffff1602179055506107a88061007b6000396000f3fe60806040526004361061004a5760003560e01c806323203d801461004f57806351cff8d9146100aa578063f340fa01146100ee578063f8b2cb4f14610132578063fc7e286d14610197575b600080fd5b34801561005b57600080fd5b506100a86004803603604081101561007257600080fd5b8101908080359060200190929190803573ffffffffffffffffffffffffffffffffffffffff1690602001909291905050506101fc565b005b6100ec600480360360208110156100c057600080fd5b81019080803573ffffffffffffffffffffffffffffffffffffffff1690602001909291905050506102c7565b005b6101306004803603602081101561010457600080fd5b81019080803573ffffffffffffffffffffffffffffffffffffffff16906020019092919050505061048a565b005b34801561013e57600080fd5b506101816004803603602081101561015557600080fd5b81019080803573ffffffffffffffffffffffffffffffffffffffff16906020019092919050505061061d565b6040518082815260200191505060405180910390f35b3480156101a357600080fd5b506101e6600480360360208110156101ba57600080fd5b81019080803573ffffffffffffffffffffffffffffffffffffffff169060200190929190505050610666565b6040518082815260200191505060405180910390f35b8073ffffffffffffffffffffffffffffffffffffffff163373ffffffffffffffffffffffffffffffffffffffff1614610280576040517f08c379a000000000000000000000000000000000000000000000000000000000815260040180806020018281038252602881526020018061074c6028913960400191505060405180910390fd5b60068211156102a85760016000806101000a81548160ff0219169083151502179055506102c3565b60008060006101000a81548160ff0219169083151502179055505b5050565b600115156000809054906101000a900460ff16151514610332576040517f08c379a000000000000000000000000000000000000000000000000000000000815260040180806020018281038252604a8152602001806106cc604a913960600191505060405180910390fd5b8073ffffffffffffffffffffffffffffffffffffffff163373ffffffffffffffffffffffffffffffffffffffff16146103b6576040517f08c379a00000000000000000000000000000000000000000000000000000000081526004018080602001828103825260368152602001806107166036913960400191505060405180910390fd5b6000600160008373ffffffffffffffffffffffffffffffffffffffff1673ffffffffffffffffffffffffffffffffffffffff1681526020019081526020016000205490506000600160008473ffffffffffffffffffffffffffffffffffffffff1673ffffffffffffffffffffffffffffffffffffffff168152602001908152602001600020819055508173ffffffffffffffffffffffffffffffffffffffff166108fc829081150290604051600060405180830381858888f19350505050158015610485573d6000803e3d6000fd5b505050565b600060019054906101000a900473ffffffffffffffffffffffffffffffffffffffff1673ffffffffffffffffffffffffffffffffffffffff163373ffffffffffffffffffffffffffffffffffffffff1614610530576040517f08c379a000000000000000000000000000000000000000000000000000000000815260040180806020018281038252602581526020018061067f6025913960400191505060405180910390fd5b6000349050662386f26fc100008111610594576040517f08c379a00000000000000000000000000000000000000000000000000000000081526004018080602001828103825260288152602001806106a46028913960400191505060405180910390fd5b80600160008473ffffffffffffffffffffffffffffffffffffffff1673ffffffffffffffffffffffffffffffffffffffff1681526020019081526020016000205401600160008473ffffffffffffffffffffffffffffffffffffffff1673ffffffffffffffffffffffffffffffffffffffff168152602001908152602001600020819055505050565b6000600160008373ffffffffffffffffffffffffffffffffffffffff1673ffffffffffffffffffffffffffffffffffffffff168152602001908152602001600020549050919050565b6001602052806000526040600020600091509050548156fe4f6e6c792074686520646f6e6f722063616e206465706f73697420646f6e6174696f6e732e4d696e696d756d20646f6e6174696f6e20726571756972656420697320302e30312065746865722e596f757220646f6e6174696f6e2077696c6c2062652073656e74206f6e636520616e2065617274687175616b65206f66206174206c6561737420372e30206973207265706f727465642e4f6e6c79207468652064657369676e6174656420636861726974792063616e2077697468647261772074686520646f6e6174696f6e2e4f6e6c7920746865206f7261636c652063616e2064657465726d696e6520746865207061796f7574a265627a7a72315820649f61a75585312876ee21eb85fe4c7f2f468124d34d18f245fa12380af9c48464736f6c634300050c0032",
  "source": "pragma solidity ^0.5.0;\n\ncontract Escrow {\n  // Set initial payout condition to false.\n  bool payout = false;\n  address donor;\n\n  // Create mapping to store addresses for each deposit made.\n  mapping(address => uint) public deposits;\n\n  // Set the donor as the one who initially invokes the contract.\n  constructor() public {\n    donor = msg.sender;\n  }\n\n  // Create functionality for transferring payment from a wallet into escrow held by the smart contract.\n  function deposit(address charity) public payable {\n    require(msg.sender == donor, \"Only the donor can deposit donations.\");\n    uint amount = msg.value;\n    require(amount > 0.01 ether, \"Minimum donation required is 0.01 ether.\");\n    deposits[charity] = deposits[charity] + amount;\n  }\n\n  // Set payout condition as fulfilled only when external data of greater than 7.0 seismicity is provided to the smart contract.\n  function determinePayout(uint seismicity, address oracle) public {\n    require(msg.sender == oracle, \"Only the oracle can determine the payout\");\n    if (seismicity > 6) {\n      payout = true;\n    } else {\n      payout = false;\n    }\n  }\n\n  // Require that only a specified charity's wallet can withdraw the funds when the payout condition is met.\n  function withdraw(address payable charity) public payable {\n    require(payout == true, \"Your donation will be sent once an earthquake of at least 7.0 is reported.\");\n    require(msg.sender == charity, \"Only the designated charity can withdraw the donation.\");\n    uint payment = deposits[charity];\n    deposits[charity] = 0;\n    charity.transfer(payment);\n  }\n\n  function getBalance(address charity) public view returns (uint) {\n    return deposits[charity];\n  }\n}\n",
  "sourcePath": "/Users/malloryleewong/Desktop/sr-phase/stackathon/contracts/SimpleStorage.sol",
  "compiler": {
    "name": "solc",
    "version": "0.5.12+commit.7709ece9.Emscripten.clang"
  },
  "schemaVersion": "3.0.18",
  "updatedAt": "2019-12-11T05:18:56.218Z",
  "devdoc": {
    "methods": {}
  },
  "userdoc": {
    "methods": {}
  }
}